:020000040000fa
:080000000002040000000000f2
:020000040000fa
:040008000a040000e6
:020000040000fa
:04000c000a040000e2
:020000040000fa
:040010000a040000de
:020000040000fa
:040014000a040000da
:020000040000fa
:040018000a040000d6
:020000040000fa
:04001c000a040000d2
:020000040000fa
:040020000a040000ce
:020000040000fa
:040024000a040000ca
:020000040000fa
:040028003c03000095
:020000040000fa
:04002c000a040000c2
:020000040000fa
:040030000a040000be
:020000040000fa
:040034000a040000ba
:020000040000fa
:040038000a040000b6
:020000040000fa
:04003c000a040000b2
:020000040000fa
:040040000a040000ae
:020000040000fa
:040044000a040000aa
:020000040000fa
:04004800660300004b
:020000040000fa
:04004c000a040000a2
:020000040000fa
:040050000a0400009e
:020000040000fa
:040054000a0400009a
:020000040000fa
:040058000a04000096
:020000040000fa
:04005c000a04000092
:020000040000fa
:040060000a0400008e
:020000040000fa
:040064000a0400008a
:020000040000fa
:040068000a04000086
:020000040000fa
:04006c000a04000082
:020000040000fa
:040070000a0400007e
:020000040000fa
:040074000a0400007a
:020000040000fa
:040078000a04000076
:020000040000fa
:04007c000a04000072
:020000040000fa
:040080000a0400006e
:020000040000fa
:040084000a0400006a
:020000040000fa
:040088000a04000066
:020000040000fa
:04008c000a04000062
:020000040000fa
:040090000a0400005e
:020000040000fa
:040094000a0400005a
:020000040000fa
:040098000a04000056
:020000040000fa
:04009c000a04000052
:020000040000fa
:0400a0000a0400004e
:020000040000fa
:0400a4000a0400004a
:020000040000fa
:0400a8000a04000046
:020000040000fa
:0400ac000a04000042
:020000040000fa
:0400b0000a0400003e
:020000040000fa
:0400b4000a0400003a
:020000040000fa
:0400b8000a04000036
:020000040000fa
:0400bc000a04000032
:020000040000fa
:0400c0000a0400002e
:020000040000fa
:0400c4000a0400002a
:020000040000fa
:0400c8000a04000026
:020000040000fa
:0400cc000a04000022
:020000040000fa
:0400d0000a0400001e
:020000040000fa
:0400d4000a0400001a
:020000040000fa
:0400d8000a04000016
:020000040000fa
:0400dc000a04000012
:020000040000fa
:0400e0000a0400000e
:020000040000fa
:0400e4000a0400000a
:020000040000fa
:0400e8000a04000006
:020000040000fa
:0400ec000a04000002
:020000040000fa
:0400f0000a040000fe
:020000040000fa
:0400f4000a040000fa
:020000040000fa
:0400f8000a040000f6
:020000040000fa
:0400fc000a040000f2
:020000040000fa
:040100000a040000ed
:020000040000fa
:040104000a040000e9
:020000040000fa
:040108000a040000e5
:020000040000fa
:04010c000a040000e1
:020000040000fa
:040110000a040000dd
:020000040000fa
:040114000a040000d9
:020000040000fa
:040118000a040000d5
:020000040000fa
:04011c000a040000d1
:020000040000fa
:040120000a040000cd
:020000040000fa
:040124000a040000c9
:020000040000fa
:040128000a040000c5
:020000040000fa
:04012c000a040000c1
:020000040000fa
:040130000a040000bd
:020000040000fa
:040134000a040000b9
:020000040000fa
:040138000a040000b5
:020000040000fa
:04013c000a040000b1
:020000040000fa
:040140000a040000ad
:020000040000fa
:040144000a040000a9
:020000040000fa
:040148000a040000a5
:020000040000fa
:04014c000a040000a1
:020000040000fa
:040150000a0400009d
:020000040000fa
:040154000a04000099
:020000040000fa
:040158000a04000095
:020000040000fa
:04015c000a04000091
:020000040000fa
:040160000a0400008d
:020000040000fa
:040164000a04000089
:020000040000fa
:040168000a04000085
:020000040000fa
:04016c000a04000081
:020000040000fa
:040170000a0400007d
:020000040000fa
:040174000a04000079
:020000040000fa
:040178000a04000075
:020000040000fa
:04017c000a04000071
:020000040000fa
:040180001003000068
:020000040000fa
:040184000a04000069
:020000040000fa
:040188000a04000065
:020000040000fa
:04018c000a04000061
:020000040000fa
:040190000a0400005d
:020000040000fa
:040194000a04000059
:020000040000fa
:040198000a04000055
:020000040000fa
:04019c000a04000051
:020000040000fa
:0401a0000a0400004d
:020000040000fa
:0401a4000a04000049
:020000040000fa
:0401a8000a04000045
:020000040000fa
:0401ac000a04000041
:020000040000fa
:0401b0000a0400003d
:020000040000fa
:0401b4000a04000039
:020000040000fa
:0401b8000a04000035
:020000040000fa
:040208000a040000e4
:020000040000fa
:04020c000a040000e0
:020000040000fa
:040210000a040000dc
:020000040000fa
:040214000a040000d8
:020000040000fa
:040218000a040000d4
:020000040000fa
:04021c000a040000d0
:020000040000fa
:040220000a040000cc
:020000040000fa
:040224000a040000c8
:020000040000fa
:040228000a040000c4
:020000040000fa
:04022c000a040000c0
:020000040000fa
:040230000a040000bc
:020000040000fa
:040234000a040000b8
:020000040000fa
:040238000a040000b4
:020000040000fa
:04023c000a040000b0
:020000040000fa
:040240000a040000ac
:020000040000fa
:040244000a040000a8
:020000040000fa
:040248000a040000a4
:020000040000fa
:04024c000a040000a0
:020000040000fa
:040250000a0400009c
:020000040000fa
:040254000a04000098
:020000040000fa
:040258000a04000094
:020000040000fa
:04025c000a04000090
:020000040000fa
:040260000a0400008c
:020000040000fa
:040264000a04000088
:020000040000fa
:040268000a04000084
:020000040000fa
:04026c000a04000080
:020000040000fa
:040270000a0400007c
:020000040000fa
:040274000a04000078
:020000040000fa
:040278000a04000074
:020000040000fa
:04027c000a04000070
:020000040000fa
:040280000a0400006c
:020000040000fa
:040284000a04000068
:020000040000fa
:040288000a04000064
:020000040000fa
:04028c000a04000060
:020000040000fa
:040290000a0400005c
:020000040000fa
:040294000a04000058
:020000040000fa
:040298000a04000054
:020000040000fa
:04029c000a04000050
:020000040000fa
:0402a0000a0400004c
:020000040000fa
:0402a4000a04000048
:020000040000fa
:0402a8000a04000044
:020000040000fa
:0402ac000a04000040
:020000040000fa
:0402b0000a0400003c
:020000040000fa
:0402b4000a04000038
:020000040000fa
:0402b8000a04000034
:020000040000fa
:0402bc000a04000030
:020000040000fa
:0402c0000a0400002c
:020000040000fa
:0402c4000a04000028
:020000040000fa
:0402c8000a04000024
:020000040000fa
:0402cc000a04000020
:020000040000fa
:0402d0000a0400001c
:020000040000fa
:0402d4000a04000018
:020000040000fa
:0402d8000a04000014
:020000040000fa
:0402dc000a04000010
:020000040000fa
:0402e0000a0400000c
:020000040000fa
:0402e4000a04000008
:020000040000fa
:0402e8000a04000004
:020000040000fa
:0402ec000a04000000
:020000040000fa
:0402f0000a040000fc
:020000040000fa
:0402f4000a040000f8
:020000040000fa
:0402f8000a040000f4
:020000040000fa
:0402fc000a040000f0
:020000040000fa
:040300000a040000eb
:020000040000fa
:040304000a040000e7
:020000040000fa
:040308000a040000e3
:020000040000fa
:04030c000a040000df
:020000040000fa
:040310000a040000db
:020000040000fa
:040314000a040000d7
:020000040000fa
:040318000a040000d3
:020000040000fa
:04031c000a040000cf
:020000040000fa
:040320000a040000cb
:020000040000fa
:040324000a040000c7
:020000040000fa
:040328000a040000c3
:020000040000fa
:04032c000a040000bf
:020000040000fa
:040330000a040000bb
:020000040000fa
:040334000a040000b7
:020000040000fa
:040338000a040000b3
:020000040000fa
:04033c000a040000af
:020000040000fa
:040340000a040000ab
:020000040000fa
:040344000a040000a7
:020000040000fa
:040348000a040000a3
:020000040000fa
:04034c000a0400009f
:020000040000fa
:040350000a0400009b
:020000040000fa
:040354000a04000097
:020000040000fa
:040358000a04000093
:020000040000fa
:04035c000a0400008f
:020000040000fa
:040360000a0400008b
:020000040000fa
:040364000a04000087
:020000040000fa
:040368000a04000083
:020000040000fa
:04036c000a0400007f
:020000040000fa
:040370000a0400007b
:020000040000fa
:040374000a04000077
:020000040000fa
:040378000a04000073
:020000040000fa
:04037c000a0400006f
:020000040000fa
:040380000a0400006b
:020000040000fa
:040384000a04000067
:020000040000fa
:040388000a04000063
:020000040000fa
:04038c000a0400005f
:020000040000fa
:040390000a0400005b
:020000040000fa
:040394000a04000057
:020000040000fa
:040398000a04000053
:020000040000fa
:04039c000a0400004f
:020000040000fa
:0403a0000a0400004b
:020000040000fa
:0403a4000a04000047
:020000040000fa
:0403a8000a04000043
:020000040000fa
:0403ac000a0400003f
:020000040000fa
:0403b0000a0400003b
:020000040000fa
:0403b4000a04000037
:020000040000fa
:0403b8000a04000033
:020000040000fa
:100400008f5c21000eff27000e0188000000000015
:10041000000020000000e000020032000001200087
:1004200020028800140007001d0107000000e00002
:1004300003003a0040a82400010020000200370019
:100440000000200001002000810f70000100320038
:1004500014000700000020000000e000020032004d
:100460000000020000000000204c0200000000001c
:100470000040da000000fe004440a90020002000f7
:100480000000e0000300320010002000900188000e
:100490004440a800000006008a1f78008b1f7800e7
:1004a00000000600a1028800800478000000eb0034
:1004b0001f003700e284440054a0b4009905ba003c
:1004c000e284440054a0b4009906ba00e2844400d7
:1004d00054a0b4000006eb00476fde00fd07b20039
:1004e000ae018800636ce10003003a00eaff0700f8
:1004f0000000eb000e003700606ce10008003a00dd
:10050000004deb000a05e800020039003420ec0041
:100510000af0a0008b05e900f9ff3e000400370057
:100520006168e100010032000086eb000b0007006b
:1005300019c7ba001905ba000e04e00003003a001a
:100540000a00e000dbff3a0000000600fe07b200f0
:10055000ae0288008a047800f5ff37000cd0a300b3
:10056000e20f4d001c00390089027800354dba00b9
:100570000a05e800020039003420ec000af0a0006f
:100580008b05e9000f003200254dba000a05e8008e
:10059000020039003420ec000af0a0008b05e900cd
:1005a000080032000c00e0000600320015cdba0051
:1005b0000a05e800020039003420ec000af0a0002f
:1005c0008b05e9008984e80054a0b4000b00e0002a
:1005d000e2ff3a00000006009902ba00055d7800cb
:1005e0008b05e900f7ff3200c82ade00055d7800c0
:1005f0008b05e900f3ff32000c00e000f1ff320050
:1006000019ddba00eeff37007e3d04000000000057
:10061000f63f0400000000002e3f04000000000030
:100620003600f800809fbe00829fbe00849fbe00ff
:10063000869fbe003200f8003400f8001000200051
:10064000a001880010002000900188000000fa003e
:10065000691707000080fa003400f9003200f90041
:100660004f03be004f02be004f01be004f00be0050
:100670003600f9000040060000a0fe003200f8003d
:100680003400f800881f780018002000a8018800b6
:1006900018002000980188004f0478000000fa003c
:1006a00010002000d04188003cc8bf000040e80096
:1006b0003ce8b7008400a9000080fa003400f9008b
:1006c0003200f9000080fe00004006003600f8000d
:1006d000809fbe00829fbe00849fbe00869fbe009a
:1006e0003200f8003400f80010002000a00188005b
:1006f00010002000900188000200fa000040eb008a
:10070000004f7800360037001e80fb006a00b900f9
:1007100080007800209e20000080400010007800bb
:100720000000e0002d0032001e81fb006a10b900bd
:1007300000007800e6004000209e2000008040007d
:100740001000be0061004000e08048006a11b9005e
:1007500082017800829e2000028141000089be0053
:100760001e80fb006a00b90000007800e60040002f
:10077000209e2000008040001001be001e80fb0073
:100780006a00b900000078008080e800209e200008
:10079000008040001000be00800f5100818f590082
:1007a0000e003a001e80fb006a00b900800078004d
:1007b000209e200000804000100078000000010012
:1007c0001e80fb006a00b90080007800809e200037
:1007d000008140006000b8000089be001e4fe800a4
:1007e0001e4078000004e000c7ff32008500a90029
:1007f0000080fa003400f9003200f9004f03be0017
:100800004f02be004f01be004f00be003600f9008f
:10081000004006000040da000000fe00889fbe0095
:1008200080047800604f80000000e00004003a007f
:100830000e0007000084eb000000e0000800350017
:10084000684f80000900e000050032000900440004
:10085000060007000000e00001003d000084eb00fe
:10086000080078004f04be000000060080007800f9
:100870000100e00003003a0000a12000604f880062
:10088000000005000080eb00825c2100828f500098
:1008900002003e00614f88000000eb0000000600ef
:1008a000000005006022b800060220000000d00011
:1008b0008180d2000482d2008582d2000000a00094
:1008c0000202520083825a000300310002024200f9
:1008d00083824a000000a1000603e900f3ff3a000a
:1008e00000000600889fbe008a9fbe008c9fbe004d
:1008f000219d2000924e80000200e0000b003a0093
:1009000064814000924e8800e24e8800a100980069
:10091000d14e8800214190000204a000a24098001e
:10092000614190000204a000e2409800670440008a
:100930004244de004244dd00d44e800001a120008c
:10094000895c2100818454002d00200011000900e1
:100950008d04d800800678000886e8000c06460062
:100960008001eb0002003700130020000b0278002a
:10097000a44090000108a300020032000a003700e2
:10098000120a780014017800a24090000108a30028
:10099000fbff320088004200810f51000200390045
:1009a0000800e00042003d00940578000b00a10023
:1009b000848f5500edff3e00e18f5100eaff3a00c1
:1009c0008d0f540002003600890f540014003900c6
:1009d0006141b8006148b900b4ff2f000500200054
:1009e0000000520081805a00800f5100818f590011
:1009f00002003500640544000a00370000a1200011
:100a0000ba5c2100000555000805450011000900e9
:100a10000985d8000980b900000578000100370079
:100a20000c0578000a0078007cff0700e10f400009
:100a300005003a00640544000a00780077ff0700cb
:100a4000e10f40002b003200e14e8000800878006a
:100a5000e14e8000e481400021419000830f50006e
:100a6000020032000204a000010037000204a100cd
:100a7000a2409800640555000a0540000a08780065
:100a8000ea4e8800219d2000010d7800e24e800092
:100a9000a24090000104a00021419800a0409000d5
:100aa0000104a100214098008001eb00afff370056
:100ab000d14e8800810f5100070036001101be00a1
:100ac000f24e8800034f8800940878000041eb0044
:100ad000d14e8000a2409800d34e8000030a7800d7
:100ae000a44090000104a00021429800640042004c
:100af000010037000000eb004f06be004f05be00ae
:100b00004f04be00000006000000e00008003200b4
:100b100064005000d14e8000810f50000100310070
:100b2000d04e8800a04090000104a1002140980010
:100b300000000600889fbe008a9fbe000004be0021
:100b40000900e00007003a000000eb000800e000a8
:100b50003600320008007800ebff07000000eb00d1
:100b6000320037000800e00003003a000900780076
:100b70005cff07002d0037006400540090057800ea
:100b800068f897000008a30002003200080078000f
:100b9000ddff07000900780052ff0700800478009d
:100ba0000000eb000900e00020003200888f5400b4
:100bb0001b00320069bd97000905550042d5de00d3
:100bc00088855500c2ddde000a0178008b0f5500d4
:100bd000010036000b0178004211dd00880078002a
:100be0000900780014000700888f54000e003100bf
:100bf0004255dd000a854400880f55000a00360082
:100c00000804550042c4de004244dd00088444006c
:100c1000f04e8000014f8000008cbe0002003700c3
:100c20000800780001003700090078004f05be0079
:100c30004f04be000000060080017800020037006b
:100c4000b15978000201e9000200e000fcff3a001f
:100c5000000006008001780002003700815978000a
:100c60000201e9000200e000fcff3a00000006007b
:020000040000fa
:100c70000400fa002047980031479800f0912000c6
:100c8000904078002e40900080cf5000020032004b
:100c900060c0b300110037003e409000ac0a07006e
:100ca000000f78001e0078000000e0000a0032000b
:100cb0001e007800900090000150a10011009800e3
:100cc0001e007800900090000160a10011009800c3
:100cd0000040eb000100370040c1b3000080fa0083
:100ce000000006000200fa00004f78006049800012
:100cf0004600de00614060000080fb0000f0a700bd
:100d00000000ea000000ea004f00de00004078002a
:100d10000080fa00000006000200fa00004f780090
:100d20007140800000f02000008060000000e000c2
:100d300002003a0010c3b300230037007140800066
:100d400000f020008080600000402000808f500074
:100d500009003a0071408000000f20000080600010
:100d6000f00f500002003a00a0c3b3001600370095
:100d700000c3b300140037007140800000f0200071
:100d80008080600000502000808f500003003a00f7
:100d900000922000104078000b0037007140800066
:100da00000102000808f5000060036007140800047
:100db000f03f2000808f500002003e0020c3b300af
:100dc0000100370040c3b3000080fa0000000600b5
:100dd0000400fa00008fbe00504980000000e000cf
:100de0000c003a0020022000befe07005049880097
:100df000504980000000e00002003a000040eb0093
:100e000018003700504980008000eb00010878008e
:100e1000010037001d100700504980003040880055
:100e20000e28ef000080eb0080408800e091200059
:100e30008040eb0001487800f09120008040eb00fa
:100e4000014878001608a80040002000704988007a
:100e500040002000804988000000eb009049880095
:100e600010c0b3000080fa00000006001400fa0071
:100e70006047980071479800024f98005307980008
:100e80006407980075079800060f98002757980088
:100e9000f0912000904078006e40900080cf50008c
:100ea0000200320060c0b300a10037007140800032
:100eb00000f020008080600000402000808f500003
:100ec0000200320010c0b300990037005049800082
:100ed0009000900000202000008060000000e000f2
:100ee00002003a0000c1b300910037000e489000a4
:100ef000eb4f500042003a00414980001107980032
:100f0000030037001e009000900078001107980041
:100f10001e0090000000e000060032001e0090005d
:100f2000604090008080fb006e009000808f500039
:100f3000f4ff3a001e0090000000e00004003200c0
:100f40001e009000200090000000e00002003a0027
:100f500030c0b300760037001e00900020009000e3
:100f6000a0009000010f78000a0037001e007800f2
:100f70009000900000202000008060000000e00051
:100f800002003a0030c0b300690037001e0078004c
:100f9000100f78001e0078000000e000f3ff3a0018
:100fa0001e00900090009000210798000300370079
:100fb0002e00900090007800210798002e009000ed
:100fc0000000e000060032002e009000204090005b
:100fd0008080fb005e009000808f5000f4ff3a009c
:100fe0002e0090000000e00002003a0030c0b30084
:100ff0004f0037001e009000ae00900021009800c6
:101000000e489000e14f50000d003a005e00900045
:101010000000e0000a003a007e4090000080fb00e3
:1010200060004000e20f500004003e006e0090009f
:101030000040780095130700010037000000000011
:1010400060408000fe4090000148780060408000d1
:101050000000e8008e489000014878006040800061
:101060000080e800de0090008140780001487800b0
:101070006040800063004000de009000c808de0091
:1010800081407800014878006040800064004000a2
:10109000ee009000814078000148780060408000b8
:1010a00065004000ee009000c808de008140780036
:1010b000014878006040800066004000fe0090001b
:1010c000814078000148780060408000670040005f
:1010d000fe009000c808de008140780001487800da
:1010e000504980008ef89700115898002e509000bb
:1010f0000004e00007003a00614080005049800091
:101100007e0290008e09900082002000bf0f070031
:101110000600370061408000504980007e02900048
:101120008e099000820020007b0f07000040eb003a
:101130000080fa00000006000a00fa00204798002c
:101140003147980022079800340798004507980017
:10115000f0912000904078002e40900080cf500009
:101160000200320060c0b3003c00370071408000d4
:1011700000f020008080600000402000808f500040
:101180000200320010c0b300340037003e4090002f
:101190006f090700000f78001e0078000000e000d3
:1011a0002d0032001e007800d00890000030200092
:1011b000008060000000e00002003a0080c1b3003f
:1011c000260037001e007800205890000004e00040
:1011d0000200350050c1b300200037001e00780027
:1011e0009000900000022000008060000000e000fd
:1011f0000200320010c1b300180037001e00780052
:101200009000900000042000008060000000e000da
:101210000200320020c1b300100037001e00780029
:101220009000900000202000008060000000e0009e
:1012300002003a0000c1b300080037003e009000f1
:1012400000017800ae0090001e007800b30f070088
:101250000040eb000100370040c1b3000080fa00fd
:10126000000006000200fa00004f7800f091200014
:10127000104078009e4f50000200320060c0b30062
:10128000090037007140800000f0200000806000fd
:101290000000e00002003a0030c0b3000200370056
:1012a0000e28ef000040eb000080fa00000006006e
:1012b0000200fa00004f7800f09120001040780002
:1012c0009e4f50000200320060c0b3000a00370099
:1012d0007140800000412000808f500002003200e9
:1012e00030c0b30004003700704080000000e80008
:1012f000704088000040eb000080fa00000006000b
:101300000200fa00004f780011479800f091200089
:10131000104078009e4f50000200320060c0b300c1
:10132000160037007140800000f0200080806000cf
:1013300000402000808f50000200320010c0b30037
:101340000e003700fc1307000004e000020032002a
:1013500020c0b30009003700c09120009e409000db
:10136000014878005049800080c0eb001158980077
:1013700000332000704088000040eb000080fa003d
:10138000000006000800fa00204798003147980046
:101390002207980033079800f091200090407800d1
:1013a0002e40900080cf50000200320060c0b30099
:1013b000190037003e409000e5080700000f780054
:1013c0001e0078000000e000120032002e009000a5
:1013d0000040780061406000614060006140600052
:1013e0009e0078000080fb00610060004d00dd0081
:1013f0001101900002d0a10002007000900098003e
:101400001e007800be009000011098000040eb0024
:101410000100370040c1b3000080fa000000060060
:101420000200fa008824ef00f091200010407800bc
:101430000004e000120032000040eb00004f780092
:10144000204980000040780010479800f09120006b
:101450001040780024002000050020000e017800d4
:10146000a10620000e210700f09120001040780016
:1014700013002000f291200011072000b50f070093
:101480006000b80052fe07000080fa00000006006d
:101490000200fa00004f7800f09120001040780020
:1014a0009e4f50000200320060c0b3000a003700b7
:1014b0007140800000402000808f50000200320008
:1014c00030c0b300040037009404a900004120009c
:1014d000704088000040eb000080fa000000060029
:1014e0000c00fa00881f7800350037008049800022
:1014f000e20f500007003c00804980000000e80037
:101500006c00b9008000780040932000008040000b
:101510000100370040932000200798002e00900023
:101520001000780021072000810f500003003200d6
:10153000f1ff2700810f500009003a002e009000b3
:101540000081e8002e00900090007800f0912000cb
:1015500010407800a30020007e0f07000100370034
:101560000000000061248000310798008c24ef0007
:10157000904980000000e90090498800804980007f
:10158000e20f500004003c00804980000000e800a9
:1015900080498800020037000000eb008049880085
:1015a000804980006c00b9008000780040932000e2
:1015b0000080400020079800be0090006124880051
:1015c000904980000000e000c8ff3a0080408000a1
:1015d000e10f40000400320080408000704088002d
:1015e0000080eb00804088007140800000f0200007
:1015f0000080600001202000810f5000470232006f
:1016000001202000810f500006003e000000e00095
:101610000e00320001102000810f5000b200320095
:10162000f205370001402000810f500067053200ad
:1016300001502000810f50009b0532000130200036
:10164000810f500099023200e80537007140800098
:10165000000f200000806000f00f50006b0032008f
:10166000f00f500003003e000000e00008003200d0
:10167000de05370001022000810f50006d003200ae
:1016800001032000810f500095003200d70537007c
:1016900063ff0700504980008000eb0001087800dc
:1016a000504980008000eb001100980050498000f4
:1016b0009000900001a0a000110098005049800007
:1016c000900090000190a000110098005049800007
:1016d0009000900001d0a0001100980050498000b7
:1016e00041012000011098005049800001042000b1
:1016f00041009800524980006000b800000998003d
:1017000011099800504980008040eb002158980052
:10171000504980008040eb000158980050498000fb
:1017200050099000f1cf2f0081006100510898000e
:101730005049800080c0eb001158980030c0b300c1
:1017400002e8b700c09120008040eb00014878001b
:10175000d09120008040eb0001487800e09120000b
:101760008040eb00014878000000eb0060498800f1
:101770000000eb00404988001228ef008c24ef00a5
:10178000f00f20005024880011248000c0082000a1
:101790000080600010248800d0072000002488000a
:1017a0009024ef00f00f20007024880000a020009b
:1017b0004800de00c024880080002000a0248800ab
:1017c000a0002000a024880080002000a024880021
:1017d00000032000302488002000200030258800ed
:1017e000a824ef009624ef00aae4a900a00420009a
:1017f000002588007140800000ff2000008060000c
:1018000070004000704088003600370016c8bf00e6
:10181000614060000004e00005003200714080007b
:1018200000ff2000008060007000400070408800d1
:101830002c0037000040eb00204f980020c3b3007d
:10184000304f98006a004700240020000500200067
:10185000000178009106200000c0eb001020070076
:101860000004e0001a00320010002000402488002c
:10187000700480000060a100700488007106800080
:10188000f00f2f0000806000700688007106800055
:10189000006020000100700070068800f0048000e5
:1018a0000060a000f00488007140800000ff20006c
:1018b0000080600070004000704088008cc4a80068
:1018c000000420000024880082c4a8000300370020
:1018d0001608a900000120007040880001003700b0
:1018e000000000004105370071408000000f20001b
:1018f0000080600001022000810f5000a200320031
:1019000001022000810f500005003e000000e000b1
:101910000a003200f00f5000250032003305370076
:1019200001032000810f50001d013200010420003e
:10193000810f5000710132002c053700704080008b
:101940006f006000e10f500011003200e10f500005
:1019500003003900e20f50000e0032001300370080
:1019600010002000502488008c04a800b00f200034
:1019700020408800000420000024880082c4a800c1
:10198000704080000000e8007040880007003700c9
:10199000060037007140800000ff200000806000da
:1019a0007000400070408800000000005a013700bd
:1019b000704080006f006000e20f50005a0032005b
:1019c000e20f500005003e000000e0000800320079
:1019d000e10f50005300320069003700e30f500060
:1019e0005c003200e40f50005b00320064003700fe
:1019f000604080000000e000030032006040800092
:101a000041fc07000c28ef0080002000b5fb070018
:101a100060408800604080000000e00006003a005e
:101a20000092200031c3b30001487800005020002c
:101a30007040880053003700c09120008040eb00c8
:101a400001487800d09120008040eb0001487800e8
:101a50000000eb006049880030c0b30001e8b70027
:101a6000d000200050258800ac24ef00ae24ef0009
:101a7000b024ef00b224ef00b424ef00b624ef004e
:101a8000b824ef00ba24ef00bc24ef00be24ef001e
:101a9000c024ef00c224ef00c424ef00c624ef00ee
:101aa000c824ef00a124800000082000008060000e
:101ab0000000e00009003a00604980000000a0003a
:101ac00060498800e091200001c8b3000148780017
:101ad00000082000b0248800aae4a8009424a800ec
:101ae0009424a900604980000040a100604988005a
:101af000604980000050a100604988009484a800db
:101b000030032000204088000004200000248800ca
:101b100082c4a800704080000000e8007040880087
:101b200018003700170037009484a9009404a80017
:101b3000b00020002040880000042000002488001d
:101b400082c4a800704080000000e8007040880057
:101b50000c0037000b003700f000200060248800e4
:101b6000f00f2000802488007140800000ff2000da
:101b70000080600070004000704088000100370065
:101b800000000000e4003700704080006f0060003b
:101b9000e10f500035003200e10f50000300390022
:101ba000e20f50004e0032007c00370050408000b1
:101bb0000000e0000300320050408000d2fb07002c
:101bc0000a28ef006040800001c8b3000148780097
:101bd000604080000000e80061c0b3000148780068
:101be000604080000080e8008040eb000148780001
:101bf000604080006300400011c0b30001487800dd
:101c000060408000640040008040eb0001487800a4
:101c100060408000650040008040eb000148780093
:101c2000604080006600400081c0b3000148780039
:101c300060408000670040008040eb000148780071
:101c40006240800061408000504980008400200094
:101c50008201780082002000af0c070070408000f5
:101c60000000e800704088004c00370050498000b8
:101c70009000900000202000008060000000e00044
:101c800016003200504980009000900000102000a3
:101c9000008060000000e0000f0032006040800023
:101ca0006400400010407800e94f500006003a0000
:101cb0000092200051c3b30001487800005020007a
:101cc0007040880005003700704080000000e80088
:101cd0007040880001003700180507002f0037000a
:101ce00060408000104078000080fb00fdfa070093
:101cf00050408800504080000000e00006003a009c
:101d00000092200031c3b300014878000050200049
:101d10007040880021003700504080006140800002
:101d2000914078000148780050498000614080006f
:101d3000f14090008180fb004100980060408000ed
:101d400071fb07000c28ef00504980004000900014
:101d5000e4fa070060408800604080000000e00076
:101d600006003a000092200031c3b3000148780019
:101d700000502000704088000800370030c0b300d9
:101d800001e8b7007140800000ff20000080600083
:101d90007000400070408800000000005e003700c6
:101da000704080006f006000e10f5000380032008a
:101db000e10f500003003900e20f500046003200ee
:101dc0004d00370090408000700060000000e0008f
:101dd00001003200480037006040800001c8b300b5
:101de00001487800604080000000e80061c0b30056
:101df00001487800604080000080e8008040eb00ef
:101e000001487800604080006300400011c0b300ca
:101e10000148780060408000640040008040eb0092
:101e20000148780060408000650040008040eb0081
:101e3000014878006040800066004000514080000a
:101e400091407800014878006040800067004000c1
:101e50008040eb000148780050408000104078003e
:101e60008081fb005240800061408000504980002a
:101e7000030278008201780082002000260c07000f
:101e8000704080000000e800704088001a003700b1
:101e900050498000900090000020200000806000e9
:101ea0000000e0000b0032005049800090009000dc
:101eb00000102000008060000000e00004003200fc
:101ec000704080000000e80070408800010037008a
:101ed0009a0407000800370030c0b30001e8b700db
:101ee0007140800000ff2000008060007000400012
:101ef0007040880000000000070037002f05070031
:101f00007140800000f02000008060000010b000f0
:101f10007040880000000000b4033700714080006a
:101f2000000f2000008060000000e000ae033a00d7
:101f3000704080006f006000e10f500032003200fe
:101f4000e10f500003003900e20f50004000320062
:101f500054003700f091200011c0b3000148780010
:101f6000604080008040eb000148780060408000c5
:101f70000000e80051c0b3000148780060408000d4
:101f80000080e800f191200091407800014878003d
:101f900060408000630040008040eb000148780012
:101fa00060408000640040008040eb000148780001
:101fb00060408000650040008040eb0001487800f0
:101fc00060408000660040008040eb0001487800df
:101fd00060408000670040008040eb0001487800ce
:101fe00061408000504980000002eb008001eb005e
:101ff00082002000050c0700704080000000e8000f
:102000007040880027003700504980009000900001
:1020100000202000008060000000e000200032006e
:102020005049800090009000001020000080600067
:102030000000e00004003200704080000000e80072
:1020400070408800170037003c0407001500370077
:102050006049800000407800614060000080fb0023
:102060004700dd0080407800f091200010407800ab
:1020700000c0700080407800e091200001487800a6
:1020800030c0b30001e8b7007140800000f02000cc
:10209000008060000010b000704088000100370030
:1020a0000000000000000000500337007140800075
:1020b000000f20000080600001022000810f50000e
:1020c000d000320001022000810f500005003e00c8
:1020d0000000e0000d003200f00f50003000320030
:1020e0004203370001042000810f5000e301320059
:1020f00001052000810f5000f20132000103200091
:10210000810f500028013200380337005040800012
:102110001050900000e8b7000f00370030498000f1
:1021200010009000400798003049800010007800af
:1021300075fa0700304980008000eb000108780044
:102140003049800070fa07000000eb003049880039
:102150004e00900030498800304980000000e000c7
:10216000eeff3a0000c8bf000004e00006003a009d
:102170000092200091c3b300014878000050200075
:1021800070408800050037007140800000ff20008b
:102190000080600070004000704088008a023700b4
:1021a000704080006f006000e10f5000310032008d
:1021b000e10f500003003900e20f50003f003200f1
:1021c0008f0037006040800001c8b30001487800ec
:1021d000604080000000e80061c0b3000148780062
:1021e000604080000080e80001802000914078007d
:1021f0008140e900014878006040800063004000b1
:1022000021c0b300014878006040800064004000b5
:102210008040eb000148780060408000650040008d
:102220008040eb000148780060408000660040007c
:1022300081c0b30001487800604080006700400022
:102240008040eb00014878006240800061408000df
:102250005049800084002000820178008200200024
:102260002d0b0700704080000000e80070408800df
:10227000630037005049800090009000002020004b
:10228000008060000000e0000b0032005049800038
:102290009000900000102000008060000000e0002e
:1022a00004003200704080000000e80070408800a8
:1022b00001003700a1030700510037006000200033
:1022c00088f90700400798004e0090000000e000e9
:1022d00006003a000092200031c3b30001487800a4
:1022e0000050200070408800450037004e049000e8
:1022f0006040800063004000104078000080fb00d8
:10230000c800dd00604080000080e80010407800d8
:102310000080fb000080400072f90700000c78008c
:10232000180078000000e0000a003a004e0090001b
:10233000f5f907000000eb0040079800009220002c
:1023400031c3b3000148780000502000704088007d
:102350002b0037004e009000100078006140800094
:10236000e3804000914078008180fb004809dd0057
:10237000614080008180e800914078008180fb000e
:1023800081004100f20f200002816000a041900016
:10239000e0c1610002c1710022409800c808de005f
:1023a00030419000604161008140710031409800ef
:1023b0004e00900031498000110098004e009000be
:1023c000304988004e00900010007800404088009e
:1023d0004e0090000180200091407800414098001c
:1023e00030c0b30001e8b7007140800000ff20005a
:1023f0000080600070004000704088000000000015
:10240000f1013700704080006f006000e10f500064
:1024100041003200e10f500003003900e20f50008c
:102420004f0032005f0037006040800001c8b300f9
:1024300001487800604080000000e80061c0b300ff
:1024400001487800604080000080e80001802000a2
:10245000914078008140e9000148780060408000a8
:102460006300400021c0b300014878006040800054
:10247000640040008040eb0001487800604080002c
:10248000650040008040eb0001487800604080001b
:102490006600400031498000910078008180e800aa
:1024a000914078000148780060408000670040005b
:1024b0003149800091007800e3804000914078002d
:1024c000014878003049800010007800a04090005a
:1024d0008180fb00304090000080fb004800dd0060
:1024e0000080700080017800304980001001780081
:1024f000614080005049800003027800820178002a
:1025000082002000840a0700704080000000e8007c
:1025100070408800230037005049800090009000f0
:1025200000202000008060000000e0000b0032006e
:102530005049800090009000001020000080600052
:102540000000e00004003200704080000000e8005d
:102550007040880001003700f802070011003700c2
:1025600030c0b30001e8b70000c8bf000040e90078
:1025700000e8b70000c8bf000004e000030032001c
:102580000031200070408800050037007140800055
:1025900000ff200000806000700040007040880054
:1025a0000000000088013700704080006f0060006c
:1025b000e10f50004c003200e10f500005003900df
:1025c000e20f500087003200e30f50009700320006
:1025d000a9003700f3090700c091200010407800df
:1025e0000004e00011003a0030498000d04088002b
:1025f0000a003700d040800010007800404088007a
:10260000f70b07000004e00021003a00e50907008d
:10261000d040800010009000d0408800d040800062
:102620000000e000f3ff3a001a0037003049800054
:10263000d040880003003700d04080001000900098
:10264000d0408800d04080000000e000060032004a
:10265000d0408000c0409000c09120001040780021
:1026600080cf5000f4ff3a00d04080001000780086
:1026700040408800da0b07000004a2000004e000dc
:1026800004003200c70907001a28ef0001003700d4
:102690000000000060498000640060000000e0006d
:1026a0000d003200d04080000000e00006003a003b
:1026b0000092200041c3b300014878000050200080
:1026c0007040880007003700704080000000e8007c
:1026d0007040880003003700704080000000e80070
:1026e000704088006400370060498000640060002a
:1026f0000000e00035003a00604980000020a000a2
:1027000060498800604080008040eb00014878000c
:10271000604080000000e80031c0b300014878004c
:1027200060498000680060000000e00005003200a1
:10273000604080000080e80031c0b30001487800ac
:1027400004003700604080000080e80041c0b30012
:102750000148780060408000630040008040eb004a
:102760000148780060408000640040008040eb0039
:102770000148780060408000650040008040eb0028
:102780000148780060408000660040008040eb0017
:102790000148780060408000670040008040eb0006
:1027a0000148780061408000504980000002eb0041
:1027b0008001eb0082002000140a070070408000b6
:1027c0000000e8007040880005003700714080007c
:1027d00000ff200000806000700040007040880012
:1027e0002500370050498000900090000020200014
:1027f000008060000000e0000b00320050498000c3
:102800009000900000102000008060000000e000b8
:1028100004003200704080000000e8007040880032
:1028200001003700450207001300370030c0b30035
:1028300001e8b700d04080000000e00006003a0048
:102840000092200041c3b3000148780000502000ee
:10285000704088000700370030c0b30001e8b700bf
:102860007140800000ff2000008060007000400088
:102870007040880000000000d3003700f091200075
:10288000104078000080fb008000eb000002be00da
:102890000001eb00c107200000c0eb00001c070096
:1028a0000004a2000004e000050032007140800036
:1028b00000ff200000806000700040007040880031
:1028c000c1003700704080006f006000e10f5000d1
:1028d00031003200e10f500005003900e20f5000d6
:1028e0003f003200e30f500043003200b5003700d4
:1028f000604080008040eb0001487800604080002c
:102900000000e80091c0b3000148780060408000fa
:102910000080e800c19120009140780001487800d3
:1029200060408000630040008040eb000148780078
:1029300060408000640040008040eb000148780067
:1029400060408000650040008040eb000148780056
:1029500060408000660040008040eb000148780045
:1029600060408000670040008040eb000148780034
:1029700061408000504980000002eb008001eb00c4
:1029800082002000a1090700704080000000e800dc
:10299000704088008b003700504980009000900004
:1029a00000202000008060000000e0000b003200ea
:1029b00050498000900090000010200000806000ce
:1029c0000000e00004003200704080000000e800d9
:1029d0007040880001003700d801070079003700f7
:1029e00030c0b30001e8b700704080000000e8008c
:1029f00070408800730037007140800000f02000b4
:102a0000008060000010b0007040880061498000c4
:102a100000042000008060000000e0001f00320081
:102a20001092200090407800214798002e4090009e
:102a30000080fb006a00b90080007800609a2000e6
:102a400000804000100278002e4090000080fb00c3
:102a50006a00b90000007800e6004000609a20009b
:102a6000008040001001be00f0912000104078006e
:102a7000ae409000040001000004a2000004e00049
:102a80002c0032000092200091c3b300014878006e
:102a90000050200070408800260037004149800027
:102aa000010f7800200037001e007800f0409000f1
:102ab000214798002e4090000080fb006a00b9007a
:102ac00080007800609a20000080400010027800aa
:102ad0002e4090000080fb006a00b90000007800e2
:102ae000e6004000609a2000008040001001be0017
:102af000f091200010407800ae40900004000100ea
:102b00000004a2000004e000050032000092200052
:102b100091c3b30001487800005020007040880045
:102b20001e007800100f78001e0078000000e00002
:102b3000ddff3a006149800000082000008060004d
:102b40000000e0001e00320020922000904078003b
:102b5000214798002e4090000080fb006a00b900d9
:102b600080007800609a2000008040001002780009
:102b70002e4090000080fb006a00b9000000780041
:102b8000e6004000609a2000008040001001be0076
:102b9000f091200010407800ae4090000400010049
:102ba0000004a2000004e0000500320000922000b2
:102bb00091c3b300014878000050200070408800a5
:102bc0000000000000000000880037007140800015
:102bd000000f2000008060000000e00003003200d1
:102be000f00f500002003200800037002d00370047
:102bf000704080006f006000e20f5000190032004a
:102c0000e20f500005003e000000e0000a00320024
:102c1000e10f50000900320074003700e40f50004b
:102c20001c003200e40f50000f003900e50f500087
:102c3000190032006d0037001a0037009444a800d4
:102c4000500120002040880000042000002488005b
:102c500082c4a800704080000000e8007040880036
:102c6000100037000f0037009444a9009404a80016
:102c7000b0002000204088000004200000248800cc
:102c800082c4a800704080000000e8007040880006
:102c90000400370003003700004020007040880027
:102ca000000000005100370071408000000f20003c
:102cb000008060000000e00048003a008000200032
:102cc000a02488008c24ef00f00f200050248800fe
:102cd00011248000c00820000080600010248800bb
:102ce000d0072000002488009024ef00f00f20007f
:102cf000702488008c04a8000004200000248800b0
:102d000082c4a80000922000104078000080fb00e0
:102d100041032000810f50001300320041032000c6
:102d2000810f500006003c00e70f500011003200f8
:102d300031032000810f50001400320016003700cc
:102d400051032000810f5000040032009103200045
:102d5000810f50000a0032000f00370050c6b30048
:102d6000204798000f003700c0c6b30020479800e6
:102d70000c003700d0c6b300204798000900370088
:102d8000e0c6b3002047980006003700f0c6b30045
:102d9000204798000300370000c7b3002047980081
:102da000000000002e4090008080fb00f091200089
:102db00010407800140020000500200042922000fe
:102dc000b71a07007140800000ff200000806000fb
:102dd00070004000704088000100370000000000d3
:102de0000000000001003700000000004f047800e0
:102df0000080fa00000006000400fa002047980056
:102e000031479800f0912000904078002e409000cb
:102e100080cf50000f003a003e4090004c02070067
:102e2000000f78001e0078000000e0000a00320069
:102e30001e007800900090000170a0001100980022
:102e40001e007800900090000190a00011009800f2
:102e500001003700000000000080fa0000000600ba
:102e60000a00fa004047980051479800320798003e
:102e700043079800f0912000904078004e40900069
:102e800080cf5000080032003e00900061c0b300c7
:102e9000014878004e0190006000b8000089be0033
:102ea00010c0b3003c0037005e40900028020700cd
:102eb000000f78001e0078000000e00032003200b1
:102ec0001e007800100090004900de0061406000a4
:102ed000204798001e00780090009000001020000d
:102ee000008060000000e000090032003e00900019
:102ef0008040eb00014878001e00780090089000a8
:102f0000000890004e0190000089be0018003700b4
:102f10001e007800900090000002200000806000f9
:102f20000000e000040032003e00900011c1b30038
:102f3000014878000e0037001e00780090009000d5
:102f400000042000008060000000e0000500320066
:102f50001e007800c05890003e00900001487800a4
:102f6000030037003e00900091c1b3000148780093
:102f70002e4090000080fb000000ea004f00de00c1
:102f800000407800040037003e00900041c1b300cb
:102f90000148780010c0b3000080fa00000006006d
:102fa0000400fa00000f780021479800324798008b
:102fb0002e409000e14f400012003a003e40900049
:102fc0000004e0000f003a00800620009e00780018
:102fd000808f500004003a0011f907001608a9007c
:102fe0000040eb0008003700b00620009e0078008b
:102ff000808f500003003a001608a8000040eb0044
:103000000100370030c0b3000080fa000000060065
:103010000a00fa00204798003147980022079800dc
:103020003407980045079800f09120009040780000
:103030002e40900080cf50000200320060c0b300ec
:103040003c0037007140800000f02000808060006c
:1030500000402000808f50000200320010c0b300fa
:10306000340037003e409000b9010700000f78009f
:103070001e0078000000e0002d0032001e007800e5
:10308000d008900000302000008060000000e000c8
:1030900002003a0080c1b300260037001e0078000d
:1030a000205890000004e00002003d0050c1b30031
:1030b000200037001e0078009000900000022000e1
:1030c000008060000000e0000200320010c1b30088
:1030d000180037001e0078009000900000042000c7
:1030e000008060000000e0000200320020c1b30058
:1030f000100037001e007800900090000020200093
:10310000008060000000e00002003a0000c1b3004f
:10311000080037003e00900000017800ae009000eb
:103120001e007800440807000040eb000100370053
:1031300040c1b3000080fa00000006000000fa0061
:1031400030408000900090000160a10011009800c4
:1031500030408000900090000150a10011009800c4
:1031600001c8bf000040e90001e8b70001c8bf0086
:103170000004e000050032007140800000ff2f00d5
:1031800000806000704088000e00370002c8bf0059
:103190000040e90002e8b70002c8bf000004e000f8
:1031a0000300320000112000704088000500370045
:1031b0000092200071c0b300014878000050200048
:1031c000704088000080fa00000006001200fa003b
:1031d000404f9800514f9800624f9800030f98009d
:1031e00050408000100798000000eb00000f7800ae
:1031f0006c0037001e0078004300dd00e600400050
:10320000a09b200000804000100078000000d1004a
:1032100061406000e14f500061003a001e007800fc
:103220004300dd00e6004000a09b2000008040003d
:10323000100078004500de00614060000004e000fe
:1032400008003a001e007800c300dd00a09b2000ab
:1032500000804000904078004e48900080cf5000a1
:103260004f003a001e0078004300dd00e6004000f9
:10327000a09b200000804000100078004400de0089
:10328000614060000004e00008003a001e00780081
:10329000c300dd00a09b2000008040009040900013
:1032a0005e48900080cf50003d003a001e0078003c
:1032b0004300dd00e6004000a09b200000804000ad
:1032c000100078004300de00614060000004e00070
:1032d00009003a001e0078004300dd008080e8000d
:1032e000a09b200000804000904078006e48900035
:1032f00080cf50002a003a001e00900080489000c5
:103300008180fb00104890000080fb004800dd0039
:1033100000807000200798001e009000a0489000d8
:103320008180fb00304890000080fb004800dd00f9
:103330000080700030079800ce489000014f980040
:10334000de489000114f9800ee489000214f980001
:103350006400470084002000050020000001780080
:103360009107200000c0eb004d1907000004a200e7
:103370000004e0000a0032001e0078004300dd0077
:10338000e4004000a09b200000804000904090009e
:103390000e0890000148780010c0b3000500370007
:1033a0001e0fe8001e007800e20f500091ff34006d
:1033b0000040eb000080fa00000006000c00fa005c
:1033c00050408000100798000000eb00000f7800cc
:1033d000604980000060a100604988006049800069
:1033e0000070a10060498800d30037001e007800fb
:1033f0004300dd00e6004000a09b2000008040006c
:10340000100078000000d100614060000004e0007e
:10341000200032001e007800c300dd00a09b2000c9
:1034200000804000904078001e00900040409000d6
:1034300080cf50009e003a001e007800c300dd00df
:10344000a09b200000804000904090001e00900053
:103450005040900080cf500095003a001e00780048
:103460004300dd008080e800a09b20000080400039
:10347000904078001e0090006040900080cf500087
:103480008b003a00604980000060a000604988001d
:10349000870037001e007800c300dd00a09b2000dd
:1034a00000804000900078001e00900000499000cd
:1034b0000281fb00104890000080fb004800dd0006
:1034c00000007100808f50003a003a001e00780022
:1034d0004300dd008080e800a09b200000804000c9
:1034e000900078001e009000204990000281fb00af
:1034f000304890000080fb004800dd0000007100b3
:10350000808f50002b003a001e0078004300dd0041
:10351000e6004000a09b20000080400010007800e2
:103520004700de0061406000e14f50001e003a009d
:10353000604980000070a000604988001e0078008b
:103540004300dd00e4004000a09b2000008040001c
:103550009040900020922000014878001e007800e2
:103560004300dd00e6004000a09b200000804000fa
:10357000100078004200de00614060000004e000be
:103580000c0032001e0078004300dd00e400400023
:10359000a09b20000080400090407800c091200057
:1035a0000148780003003700604980000060a000f7
:1035b000604988001e007800c300dd00a09b200049
:1035c0000080400010007800e10f400038003a0011
:1035d0001e0078004300dd008080e800a09b2000f2
:1035e0000080400010007800e10f400030003a00f9
:1035f0001e009000804890008180fb0010489000e1
:103600000080fb004800dd0000807000200798006b
:103610001e009000a04890008180fb003048900080
:103620000080fb004800dd0000807000300798003b
:103630001e007800c300dd00a09b20000080400039
:1036400010407800004f98001e007800c300dd0095
:10365000a09b20000080400010409000104f980078
:103660001e0078004300dd008080e800a09b200061
:103670000080400010407800204f98006400470010
:103680008400200005002000000178009107200040
:1036900000c0eb00821807000004a2000004e00054
:1036a00003003200604980000060a000604988008b
:1036b0006149800000042000008060000000e000fc
:1036c0001c0032001e0078004300dd00e4004000d2
:1036d000a09b2000008040009040900010922000ad
:1036e000014878001e0078004300dd00e60040003d
:1036f000a09b200000804000100078004200de0007
:10370000614060000004e000080032001e00780004
:103710004300dd00e4004000a09b2000008040004a
:1037200090407800c09120000148780010c0b3009c
:10373000050037001e0fe8001e007800e20f500061
:103740002aff36000040eb000080fa00000006006f
:103750000600fa00404798004e4090000004e00048
:1037600002003a00504980001f00370041498000a4
:1037700011079800180037001e00900020009000ec
:103780000000e000110032001e00900020009000b8
:10379000a0009000010f7800090037001e0078009b
:1037a000a05890004e40900080cf500002003a0098
:1037b0001e0078000c0037001e007800100f780003
:1037c0001e0078000000e000f4ff3a001e009000a8
:1037d00090007800110798001e0090000000e000a3
:1037e000e5ff3a000000eb000080fa000000060050
:1037f0001e00fa000040eb00004f7800704080008f
:1038000090408000700060000000e000c7043a00b3
:1038100090408000610060000000e00030023a004b
:103820000040eb00c60407000004e0002b02320059
:1038300030408000005890008080fb00000f200086
:103840000080600001022000810f5000af003200b4
:1038500001032000810f500060013200f00f500082
:1038600012023a0030408000005890000080fb00b7
:103870006f006000e10f500016003200e10f5000b1
:1038800003003c000000e000060032009b0037000f
:10389000e20f500021003200ef0f50005c003200b8
:1038a00096003700304080009000900001b0a100e9
:1038b00011009800d0c0b300d1090700304080004b
:1038c00020589000d1c0b300a20907001208a80038
:1038d000990437003240800030408000900890000a
:1038e000000890005001980061019800304080006d
:1038f0009000900001b0a0001100980090c0b300ab
:10390000bf090700304080002058900091c0b300ec
:10391000900907001208a800870437003040800093
:103920008040eb00015898003040800090009000eb
:103930000190a0001100980090498000e30f500012
:103940002f003c00904980000000e800904988006a
:1039500070498000e20f500004003c007049800074
:103960000000e80070498800020037000000eb000a
:1039700070498800704980006c00b90080007800b0
:103980004093200000804000100798001e00900027
:103990002107200001087800304080009008900046
:1039a000000890001e01900010019800210198006d
:1039b00030408000b00890001e0090003100980058
:1039c0001e0090008040eb001148980030408000bd
:1039d000a05890001e0090000148980030408000e0
:1039e000b05890001e0090002148980030408000a0
:1039f000905890001e009000314898000300370056
:103a00003040800081c0b300315898003e0037003c
:103a1000304080008040eb0001589800304080002a
:103a2000900090000190a000110098009049800043
:103a3000e30f50002d003c00904980000000e8009a
:103a40009049880070498000e20f500004003c005b
:103a5000704980000000e8007049880002003700cb
:103a60000000eb0070498800704980006c00b900cc
:103a700080007800409320000080400020079800dc
:103a80002e009000f1ff2700010878002e01900021
:103a90006000b80010019800210198002e009000ed
:103aa0008000eb003100980030408000c05890004a
:103ab0002e0090001148980030408000a0589000df
:103ac0002e0090000148980030408000b0589000cf
:103ad0002e009000214898003040800090589000bf
:103ae0002e009000314898000300370030408000dd
:103af00081c0b300315898000300370010c0b300f4
:103b0000004f7800000000006a013700304080005c
:103b1000005890000080fb006f006000e20f500032
:103b200020003200e20f500005003c000000e000e1
:103b300008003200e10f500012003200a3003700ed
:103b4000e30f500029003200ef0f500064003200f4
:103b50009e003700304080009000900001b0a1002e
:103b600011009800d0c0b300250907003040800044
:103b700020589000d1c0b300f60807001208a80032
:103b8000ed03370090c0b3001d09070030408000ee
:103b90002058900091c0b300ee0807001208a8005a
:103ba000e5033700324080003040800090089000ec
:103bb000000890005001980061019800304080009a
:103bc0009000900001b0a0001100980010c0b30058
:103bd0000b090700304080002058900011c0b3004e
:103be000dc0807001208a800d3033700304080002b
:103bf0008040eb0001589800304080009000900019
:103c00000190a0001100980090498000e30f50003f
:103c10002f003c00904980000000e8009049880097
:103c200070498000e20f500004003c0070498000a1
:103c30000000e80070498800020037000000eb0037
:103c400070498800704980006c00b90080007800dd
:103c50004093200000804000300798003e00900014
:103c60002107200001087800304080009008900073
:103c7000000890003e01900010019800210198007a
:103c800030408000b00890003e0090003100980065
:103c90003e0090008040eb001148980030408000ca
:103ca000a05890003e0090000148980030408000ed
:103cb000b05890003e0090002148980030408000ad
:103cc000905890003e009000314898000300370063
:103cd0003040800081c0b300315898003e0037006a
:103ce000304080008040eb00015898003040800058
:103cf000900090000190a000110098009049800071
:103d0000e30f50002d003c00904980000000e800c7
:103d10009049880070498000e20f500004003c0088
:103d2000704980000000e8007049880002003700f8
:103d30000000eb0070498800704980006c00b900f9
:103d400080007800409320000080400040079800e9
:103d50004e009000f1ff2700010878004e0190000e
:103d60006000b80010019800210198004e009000fa
:103d70008000eb003100980030408000c058900077
:103d80004e0090001148980030408000a0589000ec
:103d90004e0090000148980030408000b0589000dc
:103da0004e009000214898003040800090589000cc
:103db0004e009000314898000300370030408000ea
:103dc00081c0b300315898000300370010c0b30021
:103dd000004f780000000000b6003700304080003f
:103de000005890000080fb006f006000e20f500060
:103df00020003200e20f500005003c000000e0000f
:103e000008003200e10f500012003200a30037001a
:103e1000e30f500029003200ef0f50006400320021
:103e20009e003700304080009000900001b0a1005b
:103e300011009800d0c0b300710807003040800026
:103e400020589000d1c0b300420807001208a80013
:103e50003903370010c0b300690807003040800004
:103e60002058900011c0b3003a0807001208a800bb
:103e700031033700324080003040800090089000cd
:103e800000089000500198006101980030408000c7
:103e90009000900001b0a0001100980090c0b30005
:103ea00057080700304080002058900091c0b300b0
:103eb000280807001208a8001f03370030408000c0
:103ec0008040eb0001589800304080009000900046
:103ed0000190a0001100980090498000e30f50006d
:103ee0002f003c00904980000000e80090498800c5
:103ef00070498000e20f500004003c0070498000cf
:103f00000000e80070498800020037000000eb0064
:103f100070498800704980006c00b900800078000a
:103f20004093200000804000500798005e00900001
:103f300021072000010878003040800090089000a0
:103f4000000890005e019000100198002101980087
:103f500030408000b00890005e0090003100980072
:103f60005e0090008040eb001148980030408000d7
:103f7000a05890005e0090000148980030408000fa
:103f8000b05890005e0090002148980030408000ba
:103f9000905890005e009000314898000300370070
:103fa0003040800081c0b300315898003e00370097
:103fb000304080008040eb00015898003040800085
:103fc000900090000190a00011009800904980009e
:103fd000e30f50002d003c00904980000000e800f5
:103fe0009049880070498000e20f500004003c00b6
:103ff000704980000000e800704988000200370026
:104000000000eb0070498800704980006c00b90026
:1040100080007800409320000080400060079800f6
:104020006e009000f1ff2700010878006e019000fb
:104030006000b80010019800210198006e00900007
:104040008000eb003100980030408000c0589000a4
:104050006e0090001148980030408000a0589000f9
:104060006e0090000148980030408000b0589000e9
:104070006e009000214898003040800090589000d9
:104080006e009000314898000300370030408000f7
:1040900081c0b300315898000300370010c0b3004e
:1040a000004f7800000000000200370010c0b3008d
:1040b000004f78001e4078000004e0000700320046
:1040c000304080008040eb00015898003040800074
:1040d000900090000190a000110098001208a80024
:1040e00090408000620060000000e0004d013a0056
:1040f0004701370030408000005890008080fb006e
:10410000000f20000080600001042000810f50009b
:104110000400320001052000810f5000960032009b
:104120002a01370030408000005890000080fb00da
:104130006f006000e10f50000b003200ef0f5000e5
:104140004a0032000000e00087003a0090c0b3004f
:10415000ab070700304080002058900091c0b300aa
:104160007c07070074023700304080008040eb007d
:10417000015898003040800031408000a10090003c
:104180003100980030408000900090000190a00025
:104190001100980090498000e30f50002f003c0070
:1041a000904980000000e800904988007049800034
:1041b000e20f500004003c00704980000000e8005d
:1041c00070498800020037000000eb007049880049
:1041d000704980006c00b900800078004093200096
:1041e00000804000700798007e00900021072000aa
:1041f000010878003040800090089000000890008e
:104200007e0190001001980021019800304080004c
:10421000b00890007e009000310098007e00900071
:104220008040eb001148980030408000a05890007a
:104230007e0090000148980030408000b058900007
:104240007e009000214898003040800090589000f7
:104250007e00900031489800030037003040800015
:1042600081c0b300315898004200370030408000d0
:104270008040eb00015898003040800031408000c1
:10428000a100900031009800304080009000900024
:104290000190a0001100980090498000e30f5000a9
:1042a0002d003c00904980000000e8009049880003
:1042b00070498000e20f500004003c00704980000b
:1042c0000000e80070498800020037000000eb00a1
:1042d00070498800704980006c00b9008000780047
:1042e0004093200000804000000f98000e089000ce
:1042f000f1ff2700010878000e0990006000b80067
:1043000010019800210198000e0890008000eb0039
:104310003100980030408000c05890000e08900096
:104320001148980030408000a05890000e0890007e
:104330000148980030408000b05890000e0890006e
:104340002148980030408000905890000e0890005e
:1043500031489800030037003040800081c0b3002e
:10436000315898000300370010c0b300004f7800a8
:104370000000000098003700304080000058900096
:104380000080fb006f006000e10f50000b00320066
:10439000ef0f50004a0032000000e00087003a00b2
:1043a00010c0b3001607070030408000205890006e
:1043b00011c0b300e7060700df013700304080007e
:1043c0008040eb0001589800304080003140800070
:1043d000a1009000310098003040800090009000d3
:1043e0000190a0001100980090498000e30f500058
:1043f0002f003c00904980000000e80090498800b0
:1044000070498000e20f500004003c0070498000b9
:104410000000e80070498800020037000000eb004f
:1044200070498800704980006c00b90080007800f5
:104430004093200000804000100f98001e0890005c
:10444000210720000108780030408000900890008b
:10445000000890001e0990001001980021019800aa
:1044600030408000b00890001e0890003100980095
:104470001e0890008040eb001148980030408000fa
:10448000a05890001e08900001489800304080001d
:10449000b05890001e0890002148980030408000dd
:1044a000905890001e089000314898000300370093
:1044b0003040800081c0b30031589800420037007e
:1044c000304080008040eb00015898003040800070
:1044d00031408000a1009000310098003040800001
:1044e000900090000190a000110098009049800079
:1044f000e30f50002d003c00904980000000e800d0
:104500009049880070498000e20f500004003c0090
:10451000704980000000e800704988000200370000
:104520000000eb0070498800704980006c00b90001
:10453000800078004093200000804000200f980009
:104540002e089000f1ff2700010878002e09900046
:104550006000b80010019800210198002e0890001a
:104560008000eb003100980030408000c05890007f
:104570002e0890001148980030408000a05890000c
:104580002e0890000148980030408000b0589000fc
:104590002e089000214898003040800090589000ec
:1045a0002e0890003148980003003700304080000a
:1045b00081c0b300315898000300370010c0b30029
:1045c000004f7800000000000300370010c0b30067
:1045d000004f7800000000001e4078000004e0005a
:1045e0000b003200304080008040eb000158980002
:1045f0003040800031408000a100900031009800e0
:1046000030408000900090000190a00011009800c0
:1046100030c0b3004a0107000004e000b5fe3a00d4
:104620001228a80090408000680060000000e000b0
:1046300040013a0020c0b300410107000004e0003f
:104640003301320030408000005890008080fb0031
:10465000000f20000080600001082000810f500042
:104660000400320001092000810f50008e0032004a
:104670001a01370030408000005890000080fb0095
:104680006f006000e10f50000b003200ef0f500090
:10469000460032000000e0007f003a0090c0b30006
:1046a00057060700304080002058900091c0b300aa
:1046b0002806070020013700304080008040eb00d2
:1046c0000158980030408000900090000190a000b8
:1046d0001100980090498000e30f50002f003c002b
:1046e000904980000000e8009049880070498000ef
:1046f000e20f500004003c00704980000000e80018
:1047000070498800020037000000eb007049880003
:10471000704980006c00b900800078004093200050
:1047200000804000300f98003e08900021072000d4
:104730000108780030408000900890000008900048
:104740003e0990001001980021019800304080003f
:10475000b00890003e089000310098003e0890009c
:104760008040eb001148980030408000a058900035
:104770003e0890000148980030408000b0589000fa
:104780003e089000214898003040800090589000ea
:104790003e08900031489800030037003040800008
:1047a00081c0b300315898003e003700304080008f
:1047b0008040eb000158980030408000900090004d
:1047c0000190a0001100980090498000e30f500074
:1047d0002d003c00904980000000e80090498800ce
:1047e00070498000e20f500004003c0070498000d6
:1047f0000000e80070498800020037000000eb006c
:1048000070498800704980006c00b9008000780011
:104810004093200000804000400f98004e08900018
:10482000f1ff2700010878004e0990006000b800f1
:1048300010019800210198004e0890008000eb00c4
:104840003100980030408000c05890004e08900021
:104850001148980030408000a05890004e08900009
:104860000148980030408000b05890004e089000f9
:104870002148980030408000905890004e089000e9
:1048800031489800030037003040800081c0b300f9
:10489000315898000300370010c0b300004f780073
:1048a0000000000090003700304080000058900069
:1048b0000080fb006f006000e10f50000b00320031
:1048c000ef0f5000460032000000e0007f003a0089
:1048d00010c0b300ca050700304080002058900087
:1048e00011c0b3009b0507009300370030408000e3
:1048f0008040eb000158980030408000900090000c
:104900000190a0001100980090498000e30f500032
:104910002f003c00904980000000e800904988008a
:1049200070498000e20f500004003c007049800094
:104930000000e80070498800020037000000eb002a
:1049400070498800704980006c00b90080007800d0
:104950004093200000804000500f98005e089000b7
:104960002107200001087800304080009008900066
:10497000000890005e099000100198002101980045
:1049800030408000b00890005e0890003100980030
:104990005e0890008040eb00114898003040800095
:1049a000a05890005e0890000148980030408000b8
:1049b000b05890005e089000214898003040800078
:1049c000905890005e08900031489800030037002e
:1049d0003040800081c0b300315898003e0037005d
:1049e000304080008040eb0001589800304080004b
:1049f000900090000190a000110098009049800064
:104a0000e30f50002d003c00904980000000e800ba
:104a10009049880070498000e20f500004003c007b
:104a2000704980000000e8007049880002003700eb
:104a30000000eb0070498800704980006c00b900ec
:104a4000800078004093200000804000600f9800b4
:104a50006e089000f1ff2700010878006e099000b1
:104a60006000b80010019800210198006e089000c5
:104a70008000eb003100980030408000c05890006a
:104a80006e0890001148980030408000a0589000b7
:104a90006e0890000148980030408000b0589000a7
:104aa0006e08900021489800304080009058900097
:104ab0006e089000314898000300370030408000b5
:104ac00081c0b300315898000300370010c0b30014
:104ad000004f7800000000000300370010c0b30052
:104ae000004f7800000000001e4078000004e00045
:104af00007003200304080008040eb0001589800f1
:104b000030408000900090000190a00011009800bb
:104b100015c8bf000004e000020032001468ef0076
:104b2000c0fe37001268a800030037000000000034
:104b300001003700000000000080fa0000000600bd
:104b40000600fa0040479800504980005008900045
:104b50004800de00634060008080fb004e40900013
:104b60000080fb00808f50000a003a00504980000e
:104b70009000900000202000008060000000e00015
:104b800004003a00504980003040880010c0b30053
:104b9000820037001568ef000000eb00000f78007e
:104ba00041498000110798001e0090000000e000bd
:104bb000760032001e009000200090000000e0000f
:104bc000720032001e00900020009000a0009000b3
:104bd000010f78006d0037001e0078000000e00033
:104be000590032001e007800500890004800de0096
:104bf000634060008080fb004e4090000080fb001e
:104c0000808f50004e003a004e4090000080fb0024
:104c1000e20f500025003200e30f50000c0032007c
:104c20000000e00046003a001e007800900090006e
:104c300000202000008060000000e00035003a0005
:104c40001e0078003040880010c0b30053003700c9
:104c50001e0078009000900000202000008060007e
:104c60000000e000090032001e00780030009000d3
:104c70000000e00029003a001e007800a00090002b
:104c80001e007800310098002d0037001e007800cb
:104c9000300090000000e00022003a001e00780082
:104ca0003040880010c0b3003c0037001e00780080
:104cb0009000900000202000008060000000e000d4
:104cc0001a003a001e0078009000900000002100b9
:104cd000008060000000e00016003a0015c8bf0028
:104ce0000040e80015e8b7005181200091407800ad
:104cf00014c8bf0080cf50001000360015c8bf0098
:104d000014e8b7001e0078003040880010c0b300df
:104d100022003700000000000900370000000000fa
:104d20000700370000000000050037000000000009
:104d30000300370000000000010037000000000001
:104d40001e007800100f78001e0078000000e000c0
:104d50000e003a001e0090009000780011079800a5
:104d60001e0090000000e000080032001e009000cd
:104d7000200090000000e000040032001e009000bf
:104d800020009000a0009000010f78001e0090000d
:104d90000000e00090ff3a000040eb000080fa00c5
:104da000000006000600fa0031003700404980008c
:104db000100f780024003700404980001000900058
:104dc00090007800110798001100370040498000da
:104dd00010009000200090009000780021079800bb
:104de00040498000100090002000900046ef07002e
:104df00040498000100090008000eb0021009800e6
:104e00004049800010009000ae0090002100980002
:104e10004049800010009000200090000000e00059
:104e2000eaff3a00404980001000900036ef07008a
:104e3000404980008000eb0011009800404980004c
:104e40009e009000110098004049800010009000e2
:104e50000000e000d8ff3a00404980002aef070038
:104e60000000eb00404988009e007800414988001e
:104e7000404980000000e000ccff3a00504980002b
:104e8000304088000080fa00000006000200fa00ae
:104e90000f0037003049800010009000000f7800ac
:104ea000304980001000780017ef0700304980007b
:104eb0008000eb00010878003049800012ef070005
:104ec0000000eb00304988001e007800304988005f
:104ed000304980000000e000eeff3a0050408000c2
:104ee0000000e000030032005040800006ef0700a1
:104ef0000a28ef00604080000000e000030032005c
:104f00006040800000ef07000c28ef00a5ff0700bd
:104f10000080fa00000006000a00fa00000f780086
:104f2000110798002207980033079800440798005b
:104f30001e007800900090000150a1001100980020
:104f40001e007800900090000160a1001100980000
:104f50001e007800900090000170a10011009800e0
:104f60001e007800900090000180a10011009800c0
:104f70001e0078001001900001fe2f0081006100ea
:104f8000110098001e0078009000900001c0a10060
:104f9000110098001e007800be00900031089800b3
:104fa0001e0178006000b8000009980011099800ff
:104fb0004e0090008000eb001e0178005001980028
:104fc000610198001e0078008000eb0071089800d5
:104fd0001e0078009e009000210898001e007800b6
:104fe000ae009000710098001e00780001c2b3006e
:104ff000015898001e007800900090000190a100d8
:10500000110098000080fa00000006000a00fa0073
:10501000000f7800110798002207980033079800c6
:10502000440798001e007800900090000150a100f5
:10503000110098001e007800900090000160a1000f
:10504000110098001e007800900090000170a100ef
:10505000110098001e007800900090000180a100cf
:10506000110098001e0078001001900001fe2f0032
:1050700081006100110098001e00780090009000ef
:1050800001c0a100110098001e007800be00900031
:10509000310898001e0178006000b80000099800ef
:1050a000110998004e0090008000eb001e0178006e
:1050b00050019800610198001e0078008000eb000c
:1050c000710898001e0078009e009000210898004a
:1050d0001e007800ae009000710098004e00900015
:1050e0000000e00004003a001e00780001c1b30097
:1050f00001589800030037001e00780001c3b30078
:10510000015898001e007800900090000190a100c6
:10511000110098000080fa00000006000600fa0066
:10512000000f780011079800220798001e007800f1
:10513000900090000170a100110098001e007800fe
:10514000900090000180a100110098001e007800de
:105150001001900001fe2f008100610011009800f5
:105160001e0078009000900001c0a100110098007e
:105170001e0078009e009000310898001e01780003
:105180006000b80000099800110998002e009000f6
:105190008000eb001e01780050019800610198002a
:1051a0001e0078008000eb00710898001e00780057
:1051b000d008900000302000808060000030200087
:1051c000808f500004003a001e00780001c4b30034
:1051d00001589800120037001e007800d008900097
:1051e000003020008080600000102000808f500080
:1051f00008003a001e00780001c6b300015898006c
:105200001e007800300890008040eb0011409800ac
:10521000030037001e00780001c8b3000158980051
:105220001e007800900090000190a10011009800ed
:105230000080fa00000006000600fa00000f780067
:1052400011079800220798001e0078009000900037
:105250000170a100110098001e00780090009000dd
:105260000180a100110098001e007800100190003c
:1052700001fe2f0081006100110098001e007800df
:105280009000900001c0a100110098001e0078005d
:105290009e009000310898001e0178006000b80060
:1052a00000099800110998002e0090008000eb0082
:1052b0001e01780050019800610198001e007800de
:1052c0008000eb00710898001e007800d008900064
:1052d000003020008080600000302000808f50006f
:1052e00004003a001e00780001c5b3000158980080
:1052f000120037001e007800d00890000030200017
:105300008080600000102000808f500008003a006c
:105310001e00780001c7b300015898001e007800f5
:10532000300890008040eb001140980003003700e7
:105330001e00780001c9b300015898001e007800d3
:10534000900090000190a100110098000080fa00e8
:10535000000006000a00fa00204798002107980084
:1053600032079800430798002e0090002107200084
:10537000810f500003003200f1ff2700810f500021
:1053800015003a003e00900010489000e14f4000a8
:105390003f0032003e009000104890000080fb006b
